{
  "_format": "hh-sol-artifact-1",
  "contractName": "Todo",
  "sourceName": "contracts/Todo.sol",
  "abi": [
    {
      "inputs": [],
      "stateMutability": "nonpayable",
      "type": "constructor"
    },
    {
      "inputs": [
        {
          "internalType": "string",
          "name": "text",
          "type": "string"
        }
      ],
      "name": "add",
      "outputs": [],
      "stateMutability": "nonpayable",
      "type": "function"
    },
    {
      "inputs": [
        {
          "internalType": "string",
          "name": "text",
          "type": "string"
        },
        {
          "internalType": "uint256",
          "name": "index",
          "type": "uint256"
        }
      ],
      "name": "edit",
      "outputs": [],
      "stateMutability": "nonpayable",
      "type": "function"
    },
    {
      "inputs": [],
      "name": "list",
      "outputs": [
        {
          "internalType": "string[]",
          "name": "",
          "type": "string[]"
        }
      ],
      "stateMutability": "view",
      "type": "function"
    },
    {
      "inputs": [],
      "name": "owner",
      "outputs": [
        {
          "internalType": "address",
          "name": "",
          "type": "address"
        }
      ],
      "stateMutability": "view",
      "type": "function"
    }
  ],
  "bytecode": "0x608060405234801561001057600080fd5b50336000806101000a81548173ffffffffffffffffffffffffffffffffffffffff021916908373ffffffffffffffffffffffffffffffffffffffff160217905550610a69806100606000396000f3fe608060405234801561001057600080fd5b506004361061004c5760003560e01c80630f560cd714610051578063243c8e521461006f5780638da5cb5b1461008b578063b0c8f9dc146100a9575b600080fd5b6100596100c5565b6040516100669190610484565b60405180910390f35b61008960048036038101906100849190610625565b6101f6565b005b61009361027e565b6040516100a091906106c2565b60405180910390f35b6100c360048036038101906100be91906106dd565b6102a2565b005b60603373ffffffffffffffffffffffffffffffffffffffff1660008054906101000a900473ffffffffffffffffffffffffffffffffffffffff1673ffffffffffffffffffffffffffffffffffffffff161461011f57600080fd5b6001805480602002602001604051908101604052809291908181526020016000905b828210156101ed57838290600052602060002001805461016090610755565b80601f016020809104026020016040519081016040528092919081815260200182805461018c90610755565b80156101d95780601f106101ae576101008083540402835291602001916101d9565b820191906000526020600020905b8154815290600101906020018083116101bc57829003601f168201915b505050505081526020019060010190610141565b50505050905090565b3373ffffffffffffffffffffffffffffffffffffffff1660008054906101000a900473ffffffffffffffffffffffffffffffffffffffff1673ffffffffffffffffffffffffffffffffffffffff161461024e57600080fd5b816001828154811061026357610262610786565b5b9060005260206000200190816102799190610961565b505050565b60008054906101000a900473ffffffffffffffffffffffffffffffffffffffff1681565b3373ffffffffffffffffffffffffffffffffffffffff1660008054906101000a900473ffffffffffffffffffffffffffffffffffffffff1673ffffffffffffffffffffffffffffffffffffffff16146102fa57600080fd5b60018190806001815401808255809150506001900390600052602060002001600090919091909150908161032e9190610961565b5050565b600081519050919050565b600082825260208201905092915050565b6000819050602082019050919050565b600081519050919050565b600082825260208201905092915050565b60005b8381101561039857808201518184015260208101905061037d565b60008484015250505050565b6000601f19601f8301169050919050565b60006103c08261035e565b6103ca8185610369565b93506103da81856020860161037a565b6103e3816103a4565b840191505092915050565b60006103fa83836103b5565b905092915050565b6000602082019050919050565b600061041a82610332565b610424818561033d565b9350836020820285016104368561034e565b8060005b85811015610472578484038952815161045385826103ee565b945061045e83610402565b925060208a0199505060018101905061043a565b50829750879550505050505092915050565b6000602082019050818103600083015261049e818461040f565b905092915050565b6000604051905090565b600080fd5b600080fd5b600080fd5b600080fd5b7f4e487b7100000000000000000000000000000000000000000000000000000000600052604160045260246000fd5b6104fc826103a4565b810181811067ffffffffffffffff8211171561051b5761051a6104c4565b5b80604052505050565b600061052e6104a6565b905061053a82826104f3565b919050565b600067ffffffffffffffff82111561055a576105596104c4565b5b610563826103a4565b9050602081019050919050565b82818337600083830152505050565b600061059261058d8461053f565b610524565b9050828152602081018484840111156105ae576105ad6104bf565b5b6105b9848285610570565b509392505050565b600082601f8301126105d6576105d56104ba565b5b81356105e684826020860161057f565b91505092915050565b6000819050919050565b610602816105ef565b811461060d57600080fd5b50565b60008135905061061f816105f9565b92915050565b6000806040838503121561063c5761063b6104b0565b5b600083013567ffffffffffffffff81111561065a576106596104b5565b5b610666858286016105c1565b925050602061067785828601610610565b9150509250929050565b600073ffffffffffffffffffffffffffffffffffffffff82169050919050565b60006106ac82610681565b9050919050565b6106bc816106a1565b82525050565b60006020820190506106d760008301846106b3565b92915050565b6000602082840312156106f3576106f26104b0565b5b600082013567ffffffffffffffff811115610711576107106104b5565b5b61071d848285016105c1565b91505092915050565b7f4e487b7100000000000000000000000000000000000000000000000000000000600052602260045260246000fd5b6000600282049050600182168061076d57607f821691505b6020821081036107805761077f610726565b5b50919050565b7f4e487b7100000000000000000000000000000000000000000000000000000000600052603260045260246000fd5b60008190508160005260206000209050919050565b60006020601f8301049050919050565b600082821b905092915050565b6000600883026108177fffffffffffffffffffffffffffffffffffffffffffffffffffffffffffffffff826107da565b61082186836107da565b95508019841693508086168417925050509392505050565b6000819050919050565b600061085e610859610854846105ef565b610839565b6105ef565b9050919050565b6000819050919050565b61087883610843565b61088c61088482610865565b8484546107e7565b825550505050565b600090565b6108a1610894565b6108ac81848461086f565b505050565b5b818110156108d0576108c5600082610899565b6001810190506108b2565b5050565b601f821115610915576108e6816107b5565b6108ef846107ca565b810160208510156108fe578190505b61091261090a856107ca565b8301826108b1565b50505b505050565b600082821c905092915050565b60006109386000198460080261091a565b1980831691505092915050565b60006109518383610927565b9150826002028217905092915050565b61096a8261035e565b67ffffffffffffffff811115610983576109826104c4565b5b61098d8254610755565b6109988282856108d4565b600060209050601f8311600181146109cb57600084156109b9578287015190505b6109c38582610945565b865550610a2b565b601f1984166109d9866107b5565b60005b82811015610a01578489015182556001820191506020850194506020810190506109dc565b86831015610a1e5784890151610a1a601f891682610927565b8355505b6001600288020188555050505b50505050505056fea2646970667358221220e272c5685cca35d4713f3d022a14658f4395f6c54c9a9be1abd69457dbf5fed264736f6c63430008120033",
  "linkReferences": {},
  "deployedLinkReferences": {}
}